:100000000C9434000C9451000C9451000C94510049
:100010000C9451000C9451000C9451000C9451001C
:100020000C9451000C9451000C9451000C9451000C
:100030000C9451000C9451000C9451000C945100FC
:100040000C9451000C9451000C9451000C945100EC
:100050000C9451000C9451000C9451000C945100DC
:100060000C9451000C94510011241FBECFEFD8E026
:10007000DEBFCDBF11E0A0E0B1E0E4EBFCE002C0E8
:1000800005900D92A237B107D9F721E0A2E7B1E0C0
:1000900001C01D92A537B207E1F70E949E020C94A1
:1000A00058060C9400002FEF31EE94E021503040C0
:1000B0009040E1F700C000009BB19F709BB983FDA9
:1000C0005F9A82FD5E9A81FD5D9A80FD5C9A2FEFBA
:1000D00031EE84E0215030408040E1F700C0000064
:1000E00064E070E085E290E00C94DB0145B121E032
:1000F00030E0B90102C0660F771F8A95E2F7CB01A5
:10010000462B45B97FEF23ED30E37150204030405E
:10011000E1F700C0000095B18095892385B94FEFC4
:1001200063ED70E3415060407040E1F700C00000B3
:1001300008950F931F93CF93DF938AB18F708AB97D
:100140001F9282E08F93C1E0CF931F92DBE2DF9397
:100150000E9469021F9283E08F93CF931F92DF93D7
:100160000E943C028FE99FE00197F1F700C0000078
:100170001F9284E08F93CF931F9285E28F930E940A
:100180003C028FE99FE00197F1F700C000002DB716
:100190003EB7215F3F4F0FB6F8943EBF0FBE2DBF55
:1001A0004F9B02C0C0E801C0C0E04E99C0644D99A9
:1001B000C0624C99C0618FE99FE00197F1F700C0E0
:1001C00000001F9204E00F9311E01F931F92D5E2ED
:1001D000DF930E9469028FE99FE00197F1F700C069
:1001E00000001F920F931F931F92DF930E943C0207
:1001F0008FE99FE00197F1F700C000002DB73EB7EF
:10020000265F3F4F0FB6F8943EBF0FBE2DBF4F99EC
:10021000C8604E99C4604D99C2604C99C1608FE925
:100220009FE00197F1F700C000001F9284E08F93D8
:10023000D1E0DF931F9285E28F930E9469021F92A3
:1002400083E08F93DF931F928BE28F930E9469026A
:100250008AB1806F8AB98C2F80782DB73EB7265F20
:100260003F4F0FB6F8943EBF0FBE2DBF90E0DF9119
:10027000CF911F910F910895CF93C82F8BB18F709D
:100280008BB9C7FD5F9AC6FD5E9AC5FD5D9AC4FD38
:100290005C9A82E791E00E940F028BB18F708BB95C
:1002A000C3FD5F9AC2FD5E9AC1FD5D9AC0FD5C9A76
:1002B00064E070E085E290E00E94DB010E9499001A
:1002C00018161906DCF3CF9108950F931F93CF935F
:1002D000DF93082F1F9212E01F93D1E0DF931F924C
:1002E000CBE2CF930E943C028FE99FE00197F1F7A8
:1002F00000C00000802F0E943C011F921F93DF93DB
:100300001F92CF930E9469028DB79EB70A960FB6CF
:10031000F8949EBF0FBE8DBFDF91CF911F910F91BB
:100320000895AF92BF92DF92EF92FF920F931F93C7
:10033000CF93DF93EC0100E010E082E0F82EEE2492
:10034000E3949BE2D92E5E018881882351F11F92AC
:10035000FF92EF921F92DF920E943C028FE99FE092
:100360000197F1F700C000002196F50180810E94FD
:100370003C011F92FF92EF921F92DF920E9469024E
:100380008DB79EB70A960FB6F8949EBF0FBE8DBF6D
:100390000F30110519F480EC0E943C010F5F1F4FD4
:1003A000D2CFDF91CF911F910F91FF90EF90DF900F
:1003B000BF90AF900895FF920F931F93CF93DF9359
:1003C000EC01062FF72E7F936F9311E01F93DF93BD
:1003D0008F930E94690285E08A95F1F70000FF92F1
:1003E0000F931F93DF93CF930E943C0295E09A9561
:1003F000F1F70000FF920F931F93DF93CF930E94BA
:1004000069028DB79EB70F960FB6F8949EBF0FBEC8
:100410008DBFDF91CF911F910F91FF9008951F9392
:10042000CF93DF93EC0185E08A95F1F700008A8194
:100430001F928F9311E01F9389818F9388818F93EF
:100440000E943C0295E09A95F1F700008A811F9284
:100450008F931F9389818F9388818F930E94690264
:100460008DB79EB70A960FB6F8949EBF0FBE8DBF8C
:10047000DF91CF911F910895CF93DF93CDB7DEB772
:10048000ED81FE812F81308181E090E0088402C0FF
:10049000880F991F0A94E2F7832B80832230B0F0F3
:1004A000DE011A9641E050E0822F90E0029774F04E
:1004B0008C9112963081BA0102C0660F771F8A951F
:1004C000E2F7CB01832B80832150EECFDF91CF91D8
:1004D0000895CF93DF93CDB7DEB7ED81FE812F81F5
:1004E000308181E090E0088402C0880F991F0A944F
:1004F000E2F78095832380832230A0F0DE011A96F4
:1005000041E050E08C9112963081BA0102C0660F32
:10051000771F8A95E2F7CB0180959095832380839E
:10052000215081F7DF91CF910895E2E7F1E085E274
:1005300090E09183808384E082830895CF93DF935A
:10054000CDB7DEB7A8970FB6F894DEBF0FBECDBF0C
:100550002FEF89EF90E0215080409040E1F700C0FC
:1005600000000E9495028FEF84B98AB91F9283E040
:100570008F931F9282E08F938F931F928BE28F93C2
:100580000E9469028FE39CE90197F1F700C0000027
:1005900083E00E9453008FE090E40197F1F700C0E0
:1005A000000083E00E9453008FE891E00197F1F78B
:1005B00000C0000083E00E9453008FE090E40197A8
:1005C000F1F700C0000082E00E9453008FE090E449
:1005D0000197F1F700C0000088E20E943C0188E02A
:1005E0000E943C0181E00E943C0186E00E943C01A7
:1005F0008FE00E943C0180E091E00E9491019FEF1A
:1006000027EA81E6915020408040E1F700C00000D9
:1006100081E00E943C0184E291E00E9491019FEF01
:1006200027EA81E6915020408040E1F700C00000B9
:1006300081E00E943C0185B11F928F9387E591E094
:100640009F938F938E010F5F1F4F1F930F930E94F5
:100650006E03C8010E9491019FEF27EA81E6915045
:1006600020408040E1F700C0000022989FEF29EF72
:1006700080E0915020408040E1F700C0000081E020
:100680000E943C010FB6F894DEBF0FBECDBF86E6D8
:10069000E82E81E0F82E80E00E94760083B184701D
:1006A0001F928F93FF92EF921F930F930E946E03FE
:1006B000C8010E94910180EC0E943C019FEF23ED54
:1006C00080E3915020408040E1F700C000000F908F
:1006D0000F900F900F900F900F90DDCFAEE0B0E035
:1006E000E4E7F3E00C942F060D891E8986E08C83E5
:1006F0001A8309838FEF9FE79E838D83AE01475E48
:100700005F4F6F89788DCE0101960E949003EF8133
:10071000F885E00FF11F10822E96E4E00C944B0652
:10072000ABE0B0E0E6E9F3E00C9421066C017B015C
:100730008A01FC0117821682838181FFCCC1CE0120
:1007400001963C01F6019381F70193FD859193FF9A
:1007500081917F01882309F4BAC1853239F493FD70
:10076000859193FF81917F01853229F4B60190E054
:100770000E948705E7CF912C212C312CFFE1F31546
:10078000D8F08B3279F038F4803279F08332A1F4EA
:10079000232D20611DC08D3261F0803369F4232D3B
:1007A000216016C0832D8260382EE32DE4603E2E3A
:1007B0002AC0F32DF8601DC037FC2DC020ED280F96
:1007C0002A3040F08E32B9F436FC81C1232D2064EA
:1007D000322E19C036FE06C08AE0989E200D1124E4
:1007E000922E11C0EAE02E9E200D1124222EF32D10
:1007F000F0623F2E08C08C3621F4832D8068382E9D
:1008000002C0883641F4F70193FD859193FF8191F1
:100810007F018111B3CF982F9F7D9554933028F499
:100820000C5F1F4F9FE399830DC0833631F08337F0
:1008300071F0833509F059C021C0F80180818983A6
:100840000E5F1F4F88248394912C530113C02801FD
:10085000F2E04F0E511CF801A080B18036FE03C0BB
:10086000692D70E002C06FEF7FEFC5010E947C052B
:100870004C018201F32DFF773F2E16C0280122E0A4
:10088000420E511CF801A080B18036FE03C0692DD4
:1008900070E002C06FEF7FEFC5010E9471054C014F
:1008A000F32DF0683F2E820133FC1BC0822D90E0B7
:1008B00088169906B0F4B60180E290E00E948705A0
:1008C0002A94F4CFF50137FC859137FE81915F01C1
:1008D000B60190E00E94870521102A9421E0821A37
:1008E00091088114910471F7E8C0843611F08936BB
:1008F00041F5F80137FE07C06081718182819381E3
:100900000C5F1F4F08C060817181072E000C880B9F
:10091000990B0E5F1F4FF32DFF763F2E97FF09C0F7
:1009200090958095709561957F4F8F4F9F4FF068A0
:100930003F2E2AE030E0A3010E94C305882E8618CE
:1009400045C0853731F4232D2F7EB22E2AE030E0CA
:1009500025C0932D997FB92E8F36C1F018F48835B4
:1009600079F0B5C0803719F0883721F0B0C0E92F91
:10097000E061BE2EB4FE0DC0FB2DF460BF2E09C099
:1009800034FE0AC0292F2660B22E06C028E030E0CF
:1009900005C020E130E002C020E132E0F801B7FEFE
:1009A00007C060817181828193810C5F1F4F06C0F7
:1009B0006081718180E090E00E5F1F4FA3010E9473
:1009C000C305882E8618FB2DFF773F2E36FE0DC0FF
:1009D000232D2E7FA22E891458F434FE0BC032FC36
:1009E00009C0832D8E7EA82E05C0B82CA32C03C071
:1009F000B82C01C0B92CA4FE0FC0FE01E80DF11DFA
:100A00008081803321F49A2D997EA92E09C0A2FEFF
:100A100006C0B394B39404C08A2D867809F0B394C9
:100A2000A3FC11C0A0FE06C0B21488F4280C922CBE
:100A30009B180EC0B21460F4B60180E290E00E94F0
:100A40008705B394F7CFB21418F42B1802C0982C72
:100A5000212CA4FE10C0B60180E390E00E9487051F
:100A6000A2FE17C0A1FC03C088E790E002C088E5A1
:100A700090E0B6010CC08A2D867859F0A1FE02C024
:100A80008BE201C080E2A7FC8DE2B60190E00E94FB
:100A90008705891438F4B60180E390E00E94870549
:100AA0009A94F7CF8A94F301E80DF11D8081B60185
:100AB00090E00E9487058110F5CF222009F442CEF4
:100AC000B60180E290E00E9487052A94F6CFF601F5
:100AD0008681978102C08FEF9FEF2B96E2E10C9405
:100AE0003D06FC010590615070400110D8F78095DB
:100AF00090958E0F9F1F0895FC01615070400190EA
:100B00000110D8F7809590958E0F9F1F08950F9331
:100B10001F93CF93DF93FB01238121FD03C08FEF50
:100B20009FEF2CC022FF16C046815781248135815A
:100B30004217530744F4A081B1819D012F5F3F4FBD
:100B4000318320838C93268137812F5F3F4F3783FA
:100B5000268314C08B01EC01FB010084F185E02D9C
:100B60000995892BE1F6D80116968D919C911797DE
:100B7000019617969C938E931697CE01DF91CF9195
:100B80001F910F910895FA01AA27283051F12031C1
:100B900081F1E8946F936E7F6E5F7F4F8F4F9F4F11
:100BA000AF4FB1E03ED0B4E03CD0670F781F891F53
:100BB0009A1FA11D680F791F8A1F911DA11D6A0F21
:100BC000711D811D911DA11D20D009F468943F91D4
:100BD0002AE0269F11243019305D3193DEF6CF01D3
:100BE0000895462F4770405D4193B3E00FD0C9F799
:100BF000F6CF462F4F70405D4A3318F0495D31FD06
:100C00004052419302D0A9F7EACFB4E0A695979558
:100C1000879577956795BA95C9F70097610571052E
:100C200008959B01AC010A2E069457954795379578
:100C30002795BA95C9F7620F731F841F951FA01DD2
:100C400008952F923F924F925F926F927F928F9270
:100C50009F92AF92BF92CF92DF92EF92FF920F934B
:100C60001F93CF93DF93CDB7DEB7CA1BDB0B0FB655
:100C7000F894DEBF0FBECDBF09942A883988488812
:100C80005F846E847D848C849B84AA84B984C884A8
:100C9000DF80EE80FD800C811B81AA81B981CE0F9F
:100CA000D11D0FB6F894DEBF0FBECDBFED01089584
:040CB000F894FFCFE6
:100CB4004E612064617320776172206162657220E5
:100CC40065696E6520736368776572652047656240
:100CD40075727400556E642064617320616C6C6578
:100CE4007320776567656E2065696E656D20736333
:100CF400686C65636874656E20446174656E626CCB
:100D04006174742E2E2E00444D53473A20504F5296
:100D140054423A25780053454E534F523A20257891
:020D24000000CD
:00000001FF
