:100000000C9434000C9449000C9449000C94490061
:100010000C9449000C9449000C9449000C9449003C
:100020000C9449000C9449000C9449000C9449002C
:100030000C9449000C9449000C9449000C9449001C
:100040000C9449000C9449000C9449000C9449000C
:100050000C9449000C9449000C9449000C944900FC
:100060000C9449000C94490011241FBECFEFD8E036
:10007000DEBFCDBF11E0A0E0B1E0EAE5FCE002C0E8
:1000800005900D92A237B107D9F70E9466020C9431
:100090002B060C940000CF93DF93CDB7DEB7ED8134
:1000A000FE812F8181E090E0088402C0880F991FB3
:1000B0000A94E2F79081892B80832230B0F0DE0130
:1000C0001A9641E050E0822F90E0029774F08C91F4
:1000D0001296BA0102C0660F771F8A95E2F7CB012C
:1000E0009081892B80832150EECFDF91CF910895AD
:1000F000CF93DF93CDB7DEB7ED81FE812F8181E015
:1001000090E0088402C0880F991F0A94E2F7809556
:100110009081892380832230A0F0DE011A9641E08D
:1001200050E08C911296BA0102C0660F771F8A9533
:10013000E2F7CB01809590959081892380832150AF
:1001400081F7DF91CF9108950F931F93CF93DF93A2
:10015000C82F8BB18F708BB91F9284E08F9381E091
:100160008F931F9285E28F930E944B000F900F9008
:100170000F900F900F90C7FD5F9AC6FD5E9AC5FD68
:100180005D9AC4FD5C9A1F9204E00F9311E01F93E7
:100190001F92D5E2DF930E9478008BB18F708BB9EC
:1001A0001F920F931F931F92DF930E944B008DB7F6
:1001B0009EB70A960FB6F8949EBF0FBE8DBFC3FDC3
:1001C0005F9AC2FD5E9AC1FD5D9AC0FD5C9A1F9266
:1001D00084E08F9381E08F931F9285E28F930E943A
:1001E00078000F900F900F900F900F900E94DB01FE
:1001F00018161906DCF3DF91CF911F910F91089526
:100200000F931F93CF93DF93082F1F9212E01F933A
:10021000D1E0DF931F92CBE2CF930E944B008FE996
:100220009FE00197F1F700C00000802F90E00E944E
:10023000A4001F921F93DF931F92CF930E94780018
:100240008DB79EB70A960FB6F8949EBF0FBE8DBFAE
:10025000DF91CF911F910F910895AF92BF92DF92DE
:10026000EF92FF920F931F93CF93DF93EC0100E087
:1002700010E082E0F82EEE24E3949BE2D92E5E019A
:100280008881882361F11F92FF92EF921F92DF9283
:100290000E944B008FE99FE00197F1F700C000003A
:1002A0002196F501808190E00E94A4001F92FF92A8
:1002B000EF921F92DF920E9478008DB79EB70A9648
:1002C0000FB6F8949EBF0FBE8DBF0F30110521F4FD
:1002D00080EC90E00E94A4000F5F1F4FD0CFDF9111
:1002E000CF911F910F91FF90EF90DF90BF90AF9053
:1002F0000895CF93C82F1F9284E08F9381E08F934E
:100300001F9285E28F930E944B002FEF81EE94E0C5
:10031000215080409040E1F700C000008BB18F7009
:100320008BB90F900F900F900F900F90C3FD5F9AB5
:10033000C2FD5E9AC1FD5D9AC0FD5C9A2FEF81EE11
:1003400094E0215080409040E1F700C000001F92EF
:1003500084E08F9381E08F931F9285E28F930E94B8
:1003600078000F900F900F900F900F90CF910895FD
:1003700045B121E030E0B90102C0660F771F8A95D0
:10038000E2F7CB01462B45B97FEF23ED30E3715007
:1003900020403040E1F700C0000095B180958923EE
:1003A00085B94FEF63ED70E3415060407040E1F775
:1003B00000C000000895CF938AB18F708AB942E0DF
:1003C00050E061E070E08BE290E00E94780043E052
:1003D00050E061E070E08BE290E00E944B008FE91A
:1003E0009FE00197F1F700C0000044E050E061E0B9
:1003F00070E085E290E00E944B008FE99FE001975A
:10040000F1F700C000004F9B02C0C0E801C0C0E08F
:100410004E99C0644D99C0624C99C0618FE99FE0CC
:100420000197F1F700C0000044E050E061E070E0A7
:1004300085E290E00E9478008FE99FE00197F1F754
:1004400000C0000044E050E061E070E085E290E030
:100450000E944B008FE99FE00197F1F700C0000078
:100460004F99C8604E99C4604D99C2604C99C16063
:1004700044E050E061E070E085E290E00E947800A6
:1004800043E050E061E070E08BE290E00E94780091
:100490008AB1806F8AB98C2F807890E0CF910895CF
:1004A00044E050E061E070E085E290E00E944B00A3
:1004B0008FE99FE00197F1F700C0000044E050E0B1
:1004C00061E070E085E290E00C947800CF93DF93D8
:1004D000CDB7DEB7A8970FB6F894DEBF0FBECDBF7D
:1004E0002FEF89EF90E0215080409040E1F700C06D
:1004F00000008FEF84B98AB923E030E042E050E099
:1005000062E070E08BE290E00E9478008FE39CE96B
:100510000197F1F700C0000083E090E00E947901AC
:100520008FE090E40197F1F700C0000083E090E0D5
:100530000E9479018FE891E00197F1F700C0000077
:1005400083E090E00E9479018FE090E40197F1F759
:1005500000C0000082E090E00E9479018FE090E40A
:100560000197F1F700C0000088E290E00E94A4002B
:1005700088E090E00E94A40081E090E00E94A40046
:1005800086E090E00E94A4008FE090E00E94A4002A
:1005900080E091E00E942D019FEF27EA81E69150D3
:1005A00020408040E1F700C0000081E090E00E9420
:1005B000A40084E291E00E942D019FEF27EA81E6EA
:1005C000915020408040E1F700C0000081E090E0C1
:1005D0000E94A40085B11F928F9387E591E09F93BD
:1005E0008F938E010F5F1F4F1F930F930E94410344
:1005F000C8010E942D019FEF27EA81E6915020401B
:100600008040E1F700C0000022989FEF29EF80E0D2
:10061000915020408040E1F700C0000081E090E070
:100620000E94A4000F900F900F900F900F900F90CA
:1006300086E6E82E81E0F82E80E090E00E94B80186
:1006400083B184701F928F93FF92EF921F930F9349
:100650000E944103C8010E942D0180EC90E00E949D
:10066000A4009FEF23ED80E3915020408040E1F70C
:1006700000C000000F900F900F900F900F900F9000
:10068000DBCFAEE0B0E0E7E4F3E00C9402060D89C6
:100690001E8986E08C831A8309838FEF9FE79E83F0
:1006A0008D83AE01475E5F4F6F89788DCE010196D5
:1006B0000E946303EF81F885E00FF11F10822E96F0
:1006C000E4E00C941E06ABE0B0E0E9E6F3E00C9445
:1006D000F4056C017B018A01FC011782168283817B
:1006E00081FFCCC1CE0101963C01F6019381F70157
:1006F00093FD859193FF81917F01882309F4BAC10D
:10070000853239F493FD859193FF81917F01853284
:1007100029F4B60190E00E945A05E7CF912C212CD4
:10072000312CFFE1F315D8F08B3279F038F48032B8
:1007300079F08332A1F4232D20611DC08D3261F048
:10074000803369F4232D216016C0832D8260382EFA
:10075000E32DE4603E2E2AC0F32DF8601DC037FC67
:100760002DC020ED280F2A3040F08E32B9F436FC2F
:1007700081C1232D2064322E19C036FE06C08AE0C6
:10078000989E200D1124922E11C0EAE02E9E200D7D
:100790001124222EF32DF0623F2E08C08C3621F456
:1007A000832D8068382E02C0883641F4F70193FD0E
:1007B000859193FF81917F018111B3CF982F9F7D08
:1007C0009554933028F40C5F1F4F9FE399830DC01D
:1007D000833631F0833771F0833509F059C021C079
:1007E000F801808189830E5F1F4F88248394912CA8
:1007F000530113C02801F2E04F0E511CF801A080F4
:10080000B18036FE03C0692D70E002C06FEF7FEF4C
:10081000C5010E944F054C018201F32DFF773F2E49
:1008200016C0280122E0420E511CF801A080B180C0
:1008300036FE03C0692D70E002C06FEF7FEFC50187
:100840000E9444054C01F32DF0683F2E820133FCD9
:100850001BC0822D90E088169906B0F4B60180E2A4
:1008600090E00E945A052A94F4CFF50137FC859157
:1008700037FE81915F01B60190E00E945A05211078
:100880002A9421E0821A91088114910471F7E8C03A
:10089000843611F0893641F5F80137FE07C06081D2
:1008A0007181828193810C5F1F4F08C060817181CB
:1008B000072E000C880B990B0E5F1F4FF32DFF7650
:1008C0003F2E97FF09C090958095709561957F4F59
:1008D0008F4F9F4FF0683F2E2AE030E0A3010E9427
:1008E0009605882E861845C0853731F4232D2F7E36
:1008F000B22E2AE030E025C0932D997FB92E8F3695
:10090000C1F018F4883579F0B5C0803719F0883710
:1009100021F0B0C0E92FE061BE2EB4FE0DC0FB2D6A
:10092000F460BF2E09C034FE0AC0292F2660B22E03
:1009300006C028E030E005C020E130E002C020E140
:1009400032E0F801B7FE07C0608171818281938136
:100950000C5F1F4F06C06081718180E090E00E5FE8
:100960001F4FA3010E949605882E8618FB2DFF7746
:100970003F2E36FE0DC0232D2E7FA22E891458F453
:1009800034FE0BC032FC09C0832D8E7EA82E05C01C
:10099000B82CA32C03C0B82C01C0B92CA4FE0FC0E6
:1009A000FE01E80DF11D8081803321F49A2D997E9E
:1009B000A92E09C0A2FE06C0B394B39404C08A2D28
:1009C000867809F0B394A3FC11C0A0FE06C0B2144F
:1009D00088F4280C922C9B180EC0B21460F4B60157
:1009E00080E290E00E945A05B394F7CFB21418F455
:1009F0002B1802C0982C212CA4FE10C0B60180E355
:100A000090E00E945A05A2FE17C0A1FC03C088E72F
:100A100090E002C088E590E0B6010CC08A2D86788F
:100A200059F0A1FE02C08BE201C080E2A7FC8DE27A
:100A3000B60190E00E945A05891438F4B60180E3AB
:100A400090E00E945A059A94F7CF8A94F301E80D3A
:100A5000F11D8081B60190E00E945A058110F5CF0A
:100A6000222009F442CEB60180E290E00E945A05AD
:100A70002A94F6CFF6018681978102C08FEF9FEF0F
:100A80002B96E2E10C941006FC0105906150704039
:100A90000110D8F7809590958E0F9F1F0895FC0147
:100AA0006150704001900110D8F7809590958E0F9D
:100AB0009F1F08950F931F93CF93DF93FB01238113
:100AC00021FD03C08FEF9FEF2CC022FF16C046818F
:100AD0005781248135814217530744F4A081B181A5
:100AE0009D012F5F3F4F318320838C932681378177
:100AF0002F5F3F4F3783268314C08B01EC01FB012E
:100B00000084F185E02D0995892BE1F6D801169630
:100B10008D919C911797019617969C938E9316979B
:100B2000CE01DF91CF911F910F910895FA01AA276D
:100B3000283051F1203181F1E8946F936E7F6E5F20
:100B40007F4F8F4F9F4FAF4FB1E03ED0B4E03CD0CE
:100B5000670F781F891F9A1FA11D680F791F8A1FB1
:100B6000911DA11D6A0F711D811D911DA11D20D018
:100B700009F468943F912AE0269F11243019305DD2
:100B80003193DEF6CF010895462F4770405D4193C3
:100B9000B3E00FD0C9F7F6CF462F4F70405D4A3310
:100BA00018F0495D31FD4052419302D0A9F7EACFD8
:100BB000B4E0A6959795879577956795BA95C9F707
:100BC00000976105710508959B01AC010A2E0694FA
:100BD0005795479537952795BA95C9F7620F731FB3
:100BE000841F951FA01D08952F923F924F925F92F0
:100BF0006F927F928F929F92AF92BF92CF92DF922D
:100C0000EF92FF920F931F93CF93DF93CDB7DEB791
:100C1000CA1BDB0B0FB6F894DEBF0FBECDBF099425
:100C20002A88398848885F846E847D848C849B847C
:100C3000AA84B984C884DF80EE80FD800C811B818A
:100C4000AA81B981CE0FD11D0FB6F894DEBF0FBEB9
:0A0C5000CDBFED010895F894FFCF29
:100C5A004E6120646173207761722061626572203F
:100C6A0065696E652073636877657265204765629A
:100C7A0075727400556E642064617320616C6C65D2
:100C8A007320776567656E2065696E656D2073638D
:100C9A00686C65636874656E20446174656E626C25
:100CAA006174742E2E2E00444D53473A20504F52F1
:100CBA0054423A25780053454E534F523A202578EC
:020CCA00000028
:00000001FF
